:100000000C9422040C9434040C9434040C949F0635
:100010000C94EE1A0C9434040C9434040C943404B0
:100020000C9434040C9434040C9434040C94BC24C8
:100030000C9434040C9434040C9434040C94340460
:100040000C944F240C9434040C94B1280C940F2974
:100050000C9434040C9434040C9434040C94340440
:100060000C9434040C94340434313A313D31403131
:1000700045314D315531C631C631C6315D31603102
:1000800069317231C631C631C631C631C631C63169
:100090007A31843190319A319D31A631AF31B53109
:1000A000DC0858115811E608F30800090D09581129
:1000B000110958111F095811290933095E095811EE
:1000C000581158113D09480953092410351054108E
:1000D000351058106B105E10641081108710961048
:1000E000A910C210CC10D710E110662969296E2919
:1000F0007129742977297A297D29802983298629DC
:100100009229922992299229922992299229922917
:100110008C2989298F29084AD73B3BCE016E84BCA4
:10012000BFFDC12F3D6C74319ABD56833DDA3D0051
:10013000C77F11BED9E4BB4C3E916BAAAABE00009A
:1001400000803F05A84CCDB2D44EB93836A9020C78
:1001500050B9918688083CA6AAAA2ABE0000008051
:100160003F000D0A4772626C204568205365727625
:100170006F20302E396A205B27242720666F72207B
:1001800068656C705D0D0A000D0A003D00244E008C
:100190005D0D0A005B302E396A2E32303136303335
:1001A00031373A005D0D0A005B544C4F3A005D0D4B
:1001B0000A002C005B4739323A005D0D0A002C0022
:1001C0003A003330003238005B47005D0D0A0020F2
:1001D0005300204600205400204D3800204D3900A7
:1001E000204D3500204D3400204D3300204D32008D
:1001F000204D3100204D3000204739340020473950
:100200003300204739310020473930002047323051
:100210000020473231002047313900204731380073
:1002200020473137002047004733382E0047383009
:10023000004733004732004731004730005B00245D
:1002400024202876696577204772626C2073657474
:1002500074696E6773290D0A2423202876696577EF
:10026000202320706172616D6574657273290D0AB7
:100270002447202876696577207061727365722043
:100280007374617465290D0A24492028766965779D
:10029000206275696C6420696E666F290D0A244EB0
:1002A0002028766965772073746172747570206296
:1002B0006C6F636B73290D0A24783D76616C7565EC
:1002C000202873617665204772626C2073657474B0
:1002D000696E67290D0A244E783D6C696E65202889
:1002E00073617665207374617274757020626C6FCF
:1002F000636B290D0A24432028636865636B2067BC
:10030000636F6465206D6F6465290D0A2458202889
:100310006B696C6C20616C61726D206C6F636B2912
:100320000D0A2448202872756E20686F6D696E670B
:10033000206379636C65290D0A7E20286379636CDC
:1003400065207374617274290D0A21202866656521
:100350006420686F6C64290D0A3F202863757272EF
:10036000656E7420737461747573290D0A637472F9
:100370006C2D7820287265736574204772626C2931
:100380000D0A006F6B0D0A005D0D0A005265737453
:100390006F72696E672064656661756C7473005076
:1003A000676D20456E6400436865636B20446F6F22
:1003B000720044697361626C656400456E61626CD1
:1003C00065640043617574696F6E3A20556E6C6F99
:1003D000636B656400272448277C272458272074F2
:1003E0006F20756E6C6F636B00526573657420745B
:1003F0006F20636F6E74696E7565005B000D0A0097
:10040000486F6D696E67206661696C0050726F623B
:1004100065206661696C0041626F72742064757258
:10042000696E67206379636C6500536F6674206C36
:10043000696D69740048617264206C696D6974004B
:10044000414C41524D3A20003E0D0A002C4C696D42
:100450003A002C52583A002C4275663A002C002C77
:1004600057506F733A002C002C4D506F733A003C7C
:10047000446F6F72003C436865636B003C416C6184
:10048000726D003C486F6D65003C486F6C64003CC9
:1004900052756E003C49646C6500290D0A00206DA0
:1004A00061782074726176656C2C206D6D0020611E
:1004B0006363656C2C206D6D2F7365635E32002065
:1004C0006D617820726174652C206D6D2F6D696E81
:1004D000002C20737465702F6D6D007A00790078A0
:1004E000002028003D0024002028686F6D696E6799
:1004F0002070756C6C2D6F66662C206D6D290D0A51
:10050000002028686F6D696E67206465626F756E84
:1005100063652C206D736563290D0A2432373D0015
:100520002028686F6D696E67207365656B2C206D80
:100530006D2F6D696E290D0A2432363D0020286822
:100540006F6D696E6720666565642C206D6D2F6D1B
:10055000696E290D0A2432353D00290D0A243234F2
:100560003D002028686F6D696E672064697220699C
:100570006E76657274206D61736B3A002028686F27
:100580006D696E67206379636C652C20626F6F6C98
:10059000290D0A2432333D00202868617264206CE2
:1005A000696D6974732C20626F6F6C290D0A243297
:1005B000323D002028736F6674206C696D69747316
:1005C0002C20626F6F6C290D0A2432313D002028E7
:1005D0007265706F727420696E636865732C206237
:1005E0006F6F6C290D0A2432303D00202861726340
:1005F00020746F6C6572616E63652C206D6D290DC2
:100600000A2431333D0020286A756E6374696F6E69
:1006100020646576696174696F6E2C206D6D290D9B
:100620000A2431323D00290D0A2431313D002028B1
:10063000737461747573207265706F7274206D616C
:10064000736B3A00202870726F62652070696E20AB
:10065000696E766572742C20626F6F6C290D0A24A6
:1006600031303D0020286C696D69742070696E73AB
:1006700020696E766572742C20626F6F6C290D0A8A
:1006800024363D0020287374657020656E61626CAD
:100690006520696E766572742C20626F6F6C290D0F
:1006A0000A24353D00290D0A24343D0020286469C0
:1006B0007220706F727420696E76657274206D613D
:1006C000736B3A00290D0A24333D002028737465AA
:1006D0007020706F727420696E76657274206D611F
:1006E000736B3A002028737465702069646C652010
:1006F00064656C61792C206D736563290D0A243261
:100700003D002028737465702070756C73652C2013
:1007100075736563290D0A24313D0024303D005D69
:100720000D0A003A002C005B5052423A000D0A00BC
:10073000496E76616C69642067636F646520494423
:100740003A00556E646566696E6564206665656429
:10075000207261746500556E737570706F72746588
:100760006420636F6D6D616E64004D6F64616C2019
:1007700067726F75702076696F6C6174696F6E0057
:100780004C696E65206F766572666C6F7700486F96
:100790006D696E67206E6F7420656E61626C656452
:1007A00000416C61726D206C6F636B004E6F742042
:1007B00069646C6500454550524F4D207265616417
:1007C000206661696C2E205573696E6720646566CA
:1007D00061756C74730056616C7565203C20332024
:1007E000757365630053657474696E67206469731B
:1007F00061626C65640056616C7565203C20300058
:10080000496E76616C69642073746174656D656EA0
:100810007400426164206E756D62657220666F724D
:100820006D617400457870656374656420636F6DF5
:100830006D616E64206C6574746572006572726FB0
:10084000723A200011241FBECFEFD8E0DEBFCDBF2B
:1008500026E0A0E0B1E001C01D92AE3CB207E1F796
:100860000E94402B0C94693A0C940000EBE6F0E0F7
:100870008081897E8083E8E6F0E080818E7F8083BE
:10088000089584B1897E84B985B1866185B98091E6
:10089000650683FF0BC080916B00866180936B00BF
:1008A0008091680081608093680008950C943604FC
:1008B000F999FECF92BD81BD81E08FBB80B50895CF
:1008C0002F923F924F925F926F927F928F929F9260
:1008D000AF92BF92CF92DF92EF92FF920F931F934E
:1008E000CF93DF93C0918304C11101C0C2E1C15015
:1008F000D0919F01CD1709F41BC1EC2EF12C29E2F8
:10090000C29F8001112400561E4FF801A588B688A9
:10091000C788D08C61A172A183A194A19B01AC0175
:100920000E940936F80125A136A147A150A50E94D1
:1009300060394B018C019B01AC01B501C6010E94DD
:10094000FE3687FD02C05401680189E28E9DF001E8
:100950008F9DF00D1124E056FE4FC501D601818B0D
:10096000928BA38BB48BC11101C0C2E1C150CD17D2
:1009700061F029E22E9DC0012F9D900D11249C0154
:1009800020563E4F7901D9E233C080918204D813BA
:100990005EC00E94271B5BC0AC2EB12CDA9DC0014B
:1009A000DB9D900D1124FC01E056FE4F6F01C1113B
:1009B00001C0C2E1C15080918204C81302C00E94EC
:1009C000271BDA9D8001DB9D100D112400561E4F60
:1009D000F80185889688A788B08CA5019401618963
:1009E0007289838994890E94FE36811106C076013E
:1009F00080919F01C813D0CF2AC0F80161A172A1D4
:100A000083A194A19B01AC010E940936F80125A1A4
:100A100036A147A150A50E946039F701218932898A
:100A2000438954890E9409362B013C01A501940198
:100A30000E94FE36F80187FF05C0418A528A638A08
:100A4000748AD5CF818A928AA38AB48AD0CFD09172
:100A50009F01F9E2DF9F8001112400561E4FC1E083
:100A6000CD0FC23109F4C0E02090830489E2382E12
:100A7000C21509F45BC0CC2ED12C3C9CC0013D9C1E
:100A8000900D11249C0120563E4F7901F8014188B8
:100A9000528863887488F90181889288A388B48811
:100AA000A5019401C301B2010E94FE3687FF24C054
:100AB000F80161A172A183A194A19B01AC010E94E4
:100AC0000936F80125A136A147A150A50E94603939
:100AD0009B01AC01C301B2010E9409362B013C010C
:100AE000A50194010E94FE3687FF06C0F701418AE6
:100AF000528A638A748ADC2F3C9CF0013D9CF00D85
:100B00001124E056FE4F258936894789508D618929
:100B10007289838994890E94FE36811101C0DC2F7D
:100B2000CF5FC23109F4C0E08701A2CFD0939F010B
:100B3000DF91CF911F910F91FF90EF90DF90CF90B9
:100B4000BF90AF909F908F907F906F905F904F90ED
:100B50003F902F900895009741F0EFE9FFE0319723
:100B6000F1F700C000000197F6CF089593B1967198
:100B70008091650686FD02C086E19827992349F099
:100B800091FB882780F992FD8260907119F0846052
:100B9000089580E008958F929F92AF92BF92CF9276
:100BA000DF92EF92FF920F931F93CF934B017A0145
:100BB0006C01C40ED51E8C01C0E05B01A81AB90AF5
:100BC000C501800F911F0C151D0599F00E94580456
:100BD000C11108C02C2FCC0F330B232F221F22272B
:100BE000221F01C021E0C22FC80FF80181938F019D
:100BF000E7CFC4018E0D9F1D0E94580421E030E014
:100C0000C81711F020E030E0C901CF911F910F917A
:100C1000FF90EF90DF90CF90BF90AF909F908F901C
:100C20000895F894F999FECF92BD81BD81E08FBB04
:100C300080B58627482F082E000C550B262F30E054
:100C400024233523232B39F06F3F19F060BD84E056
:100C500006C084E104C0882321F060BD84E28FBB1C
:100C6000F99A789408958F929F92AF92BF92CF9203
:100C7000DF92EF92FF920F931F93CF937C014A0173
:100C80006B01C40ED51E8B01C0E05C01A61AB70A29
:100C9000C8018A0D9B1D0C151D0599F0C11108C0D6
:100CA0002C2FCC0F330B232F221F2227221F01C0F2
:100CB00021E0F80161918F01C22FC60F0E94110639
:100CC000E7CF6C2FC701880D991DCF911F910F9110
:100CD000FF90EF90DF90CF90BF90AF909F908F905C
:100CE0000C941106439808958091260684FD26C031
:100CF0009FB7F894809126068061809326069FBF57
:100D00000E9412270E9472068091B106982F9C7053
:100D100021F49091B206913089F49FB7843029F480
:100D2000F8948091AF06806204C0F8948091AF0679
:100D300088608093AF069FBF0C94652408951F922E
:100D40000F920FB60F9211242F933F934F935F93FF
:100D50006F937F938F939F93AF93BF93EF93FF9383
:100D60008091B106813071F08091AF0681110AC087
:100D70000E9474069FB7F8948091AF0683608093B9
:100D8000AF069FBFFF91EF91BF91AF919F918F9160
:100D90007F916F915F914F913F912F910F900FBE77
:100DA0000F901F9018952F923F924F925F926F92E3
:100DB0007F928F929F92AF92BF92CF92DF92EF92EB
:100DC000FF920F931F93CF93DF93CDB7DEB7E797D3
:100DD0000FB6F894DEBF0FBECDBF89E3E6E7F6E0BD
:100DE000DF011D928A95E9F78AE0E7EEF5E0A7E7D3
:100DF000B6E001900D928A95E1F71D8E212C312CE1
:100E0000E12CF12C1F8E10E01E8E66246394712C51
:100E100055245394B6E04B2E8D8DE82FF0E0E95623
:100E2000FA4FC080CC2009F46CC29FEB9C0D9A3124
:100E300010F00C944A118F5F8D8FBE01675E7F4F5B
:100E4000CE014D960E94EE29882311F40C944C118A
:100E5000898C9A8CAB8CBC8CC501B4010E94433A3E
:100E60000E948137062F70E080E090E00E94B23748
:100E70009B01AC01C501B4010E94083620E030E0BE
:100E800048EC52E40E9460390E94CD390E948137BB
:100E9000B7E4CB1629F0EDE4CE1609F437C17BC1D7
:100EA000083209F408C1E8F4043160F4013108F0B3
:100EB000ADC0043009F44CC008F463C00A30E1F15D
:100EC0000C9458110C31C1F128F4063108F4CDC04E
:100ED0000C9458110E3181F1063209F452C00C9471
:100EE00058110D3309F4E1C0B0F4053309F445C0DD
:100EF00040F40B3209F4C2C0013309F4BFC00C94B2
:100F000058110C3310F00C9458118AEC800F809318
:100F10007D0689E0D3C00C3540F40A3508F085C061
:100F2000003509F46FC00C9458110C3529F00F35B9
:100F300008F492C00C9458116115710511F00C94CD
:100F40006811FE8DFF2311F40C9477110C944E114F
:100F5000509276060AC00F3150F40A3009F0B2C040
:100F600021E02E8F82E08093760680E0A7C00533D3
:100F700011F00C948E11E1E0EE8FF7E0F09376061D
:100F8000F4CF9E8D91110C944E11A2E0AE8F0230E1
:100F900089F028F4002359F0013081F08EC0063228
:100FA00081F0003579F1033009F087C007C0109255
:100FB000770683C0BE8DB09377067FC00093770617
:100FC0007CC06E317105B1F048F46431710511F0E7
:100FD0000C945811E4E0E093770612C06832710572
:100FE00069F06233710511F00C94581127E02093D9
:100FF000770606C0F5E0F093770602C040927706C8
:1010000081E074C038E03093770657C0023129F090
:10101000033139F010927B0602C050927B0682E0C9
:101020004DC082E080937B0649C06115710549F48B
:101030000A3519F410927A0602C050927A0683E0BB
:1010400055C06A30710511F00C9458110A3511F42D
:101050000C94581184E04AC00D3519F4509278066A
:1010600002C01092780685E029C0043119F450922C
:10107000790602C01092790686E020C08E8D81111B
:101080000C944E11013331F410927C0688E093E009
:101090009E8F2CC06A30710511F00C94581150923B
:1010A0007C0688E0A3E0AE8F21C0672B11F00C9482
:1010B00058118AE01BC087E001C081E0672BB1F0C6
:1010C0000C9473110C3111F00C949E1131E03E8F91
:1010D0006115710511F40C948C116A30710511F0D1
:1010E0000C94581194E09093760680E0F30102C0CE
:1010F000EE0FFF1F8A95E2F7CF019F012E213F21BE
:10110000232B09F445C085E10C94B211672B11F033
:101110000C947311063018F4033058F017C00830DF
:1011200010F40C9458110A3000F10E3159F00C945F
:101130005811023039F00E3129F0011120C05092BF
:101140007E061DC082E080937E0619C0043029F01F
:10115000053039F05092800606C082E08093800608
:1011600002C0109280068CE00BC0093021F082E0B2
:1011700080937F0602C010927F068DE001C08BE055
:10118000930102C0220F331F8A95E2F7C901B6CF3F
:10119000E82AF92A41CE8C2DCC0C990BAA0BBB0B5B
:1011A000FC01E654F109E531F10510F00C945811F9
:1011B000E05BFF4F0C94E8358092810690928206A6
:1011C000A0928306B092840680E079C08092850662
:1011D00090928606A0928706B09288063F8D316075
:1011E0003F8F81E06CC08092890690928A06A0921F
:1011F0008B06B0928C068F8D82608F8F82E05FC0ED
:1012000080928D0690928E06A0928F06B0929006E4
:101210009F8D94609F8F83E052C00093910684E07D
:101220004EC0C501B4010E947A3760939206709354
:101230009306809394069093950685E040C0809233
:10124000960690929706A0929806B092990686E02C
:1012500036C080929A0690929B06A0929C06B0920D
:101260009D0687E02CC080929E0690929F06A092D9
:10127000A006B092A10688E022C08092A3069092B8
:10128000A406A092A506B092A60611608AE017C037
:101290008092A7069092A806A092A906B092AA06EC
:1012A00012608BE00CC08092AB069092AC06A092CC
:1012B000AD06B092AE0614608CE001C089E0630117
:1012C000082E02C0CC0CDD1C0A94E2F79601222104
:1012D0003321232B09F0E4C7A1E6B3E002C0B595A2
:1012E000A7958A95E2F7A0FF09C020E030E0A901A8
:1012F000C501B4010E94FE3687FDD4C72C283D28C5
:101300008BCD112329F0BE8DB11102C0E2E0EE8F2A
:1013100025FE0EC08091920690919306A0919406AE
:10132000B091950680389649A849B1050CF0BCC724
:1013300080917806813031F42E8D2230A1F520FE87
:10134000BDC731C08091E80581112DC020FE1BC0B2
:1013500080917906813039F523E333E34BEC51E496
:101360006091810670918206809183069091840637
:101370000E94603960938106709382068093830691
:101380009093840610C08091F5059091F605A09188
:10139000F705B091F8058093810690938206A0939B
:1013A0008306B093840630FC10C08091F1059091C3
:1013B000F205A091F305B091F40580939E069093F9
:1013C0009F06A093A006B093A10680917606813077
:1013D00031F426FC02C08CE1C5C7E89426F8809160
:1013E0007B06882371F0813031F431E038A71FA2E9
:1013F00082E08EA30BC018A692E09FA3A1E0AEA34B
:1014000005C0B2E0B8A7E1E0EFA31EA28091790683
:10141000813021F0FE8DF330A1F52CC0F3EAAF2E20
:10142000F6E0BF2EC12CD12C812E912CC4010C2CA6
:1014300002C0959587950A94E2F780FF10C023E3D8
:1014400033E34BEC51E4D5016D917D918D919C91ED
:101450000E946039F5016083718382839383FFEF7B
:10146000CF1ADF0A24E0A20EB11C33E0C316D10468
:10147000E9F6D0CF80917C06813019F4143009F060
:1014800015C78CE0EAE0F6E0DE011D9601900D92B2
:101490008A95E1F7F1FC08C0009176060230B9F0B8
:1014A000083009F4B0C013C180917D06873010F078
:1014B0008DE158C79091ED05981771F3BE01635FF8
:1014C0007F4F0E948C27882309F400C7E5CF1111B4
:1014D00002C08AE147C7C10180759927892B09F4A9
:1014E0007ACF6091960670919706809198069091B8
:1014F00099060E94433A0E9481376730C8F680916E
:101500009106843129F0823009F0D2C627FCD0C67A
:101510008FEA2822662319F061506BA303C09091D3
:101520007D069BA3BE016F5F7F4F8BA10E948C271E
:10153000882309F4CBC60091910640902206509072
:1015400023066090240670902506DE0111967D0129
:10155000A12CB12CC12CD12C812E912CC4010C2C8E
:1015600002C0959587950A94E2F780FF3DC0F5018A
:10157000EA58F94FFDA3ECA3043159F5F501E951FF
:10158000FA4F27A530A941A952A96789708D818D8D
:10159000928D0E940836ACA1BDA19D962D913D91E2
:1015A0004D915C91D0970E940836F701608371835A
:1015B00082839383F2E0CF16D104B1F4A3019201A8
:1015C0000E940836D7016D937D938D939C9313975A
:1015D0000BC0ECA1FDA185A596A5A7A5B0A9F70113
:1015E00080839183A283B383FFEFCF1ADF0A24E0C5
:1015F000A20EB11C34E0E30EF11C83E0C816D10446
:1016000009F0ACCF17C1112309F463CF4090220633
:10161000509023066090240670902506E3EAEE2E93
:10162000E6E0FE2EA12CB12CC12CD12C812E912CC8
:10163000F501E951FA4FC4010C2C02C0959587952C
:101640000A94E2F780FF2BC0ADE0B0E0AC0FBD1F05
:10165000AA0DBB1D2D913D914D915C916789708DB7
:10166000818D928D0E940836D7012D913D914D912B
:101670005C910E940836F7016083718382839383B3
:10168000F2E0CF16D104A1F4A30192010E94083622
:10169000D7016D937D938D939C93139709C087A574
:1016A00090A9A1A9B2A9F70180839183A283B383F2
:1016B000FFEFCF1ADF0A24E0A20EB11C34E0E30EE4
:1016C000F11C83E0C816D10409F0B2CFB2C09E8DE0
:1016D000933051F4053009F495C0073009F4A4C0E3
:1016E000033009F0A6C086C0112309F498C0A09168
:1016F0007A06ABA340902206509023066090240601
:10170000709025066EEFA62E65E0B62E73EAE72EE2
:1017100076E0F72E4E01BDE08B0E911CC12CD12C32
:10172000E12FF0E0FDA3ECA38CA19DA10C2C02C045
:10173000959587950A94E2F780FD0BC0F5018081AD
:101740009181A281B381F70180839183A283B383C6
:101750003FC00730E9F1FBA1F11129C0D50158962E
:101760002D913D914D915C915B97F4016081718168
:10177000828193810E940936D7012D913D914D912F
:101780005C910E940936F7016083718382839383A1
:10179000F2E0CF16D104E1F4A30192010E940936D0
:1017A000D7016D937D938D939C93139711C0F50191
:1017B0002081318142815381D7016D917D918D913D
:1017C0009C910E940936F701608371838283938321
:1017D000FFEFCF1ADF0A24E0A20EB11C34E0E30EC3
:1017E000F11C84E0880E911C93E0C916D10409F025
:1017F0009BCF70CF111101C01E8EBE016F5F7F4F56
:1018000086E007C0111101C01E8EBE016F5F7F4FC1
:1018100087E00E948C27882309F458C50AC0053048
:1018200099F3073009F09AC580917706823008F065
:1018300041C51BA200917706083041F4112309F439
:10184000DAC1AE8DA13009F037C5B9C2BE8DB23054
:1018500009F0D1C10023D9F020E030E0A901609166
:1018600081067091820680918306909184060E9481
:10187000FE36882309F422C5043028F4023058F4D7
:10188000013029F09CC2083008F474C198C21123B9
:1018900009F4B4C194C2112309F41BCEFEA1EF2FA9
:1018A000F0E0FDA3ECA33FA1232F30E03AA729A746
:1018B00081E090E07C010FA002C0EE0CFF1C0A94B6
:1018C000E2F70EA002C0880F991F0A94E2F7E82AF7
:1018D000F92A812F90E08E219F21892B09F4F0C4F1
:1018E000CF01880F991F880F991FFC01EA58F94F03
:1018F000DC01A951BA4F57962D913D914D915C91C4
:101900005A9765A576A587A590A90E9408362B0150
:101910003C0189A59AA5880F991F880F991FFC0182
:10192000EA58F94FDC01A951BA4F57962D913D91D4
:101930004D915C915A9765A576A587A590A90E94BF
:1019400008364B015C01610180E8C822DD2427FED6
:1019500040C0E89427F82091A3063091A406409156
:10196000A5065091A6066091FE057091FF05809135
:101970000006909101060E94FE36811144C120911B
:10198000A7063091A8064091A9065091AA06609139
:1019900002067091030680910406909105060E944C
:1019A000FE36811130C12091AB063091AC064091DA
:1019B000AD065091AE0660910606709107068091C3
:1019C0000806909109060E94FE3681111CC181E231
:1019D000C9C43F8D232F30E038A32F8FE222F3229A
:1019E000EF2809F46FC481EF2822809179068130B5
:1019F00009F47BC0ECA1FDA1EE0FFF1FEE0FFF1F4E
:101A0000E658F94FC384D484E584F684A70196018F
:101A1000C301B2010E9408362B013C01E9A5FAA5D9
:101A2000EE0FFF1FEE0FFF1FE658F94F83859485D9
:101A3000A585B6858F8F98A3A9A3BAA39C01AD01F4
:101A4000C501B4010E9408364B015C01A30192015B
:101A5000C301B2010E9460392B013C01A501940130
:101A6000C501B4010E9460399B01AC01C301B20100
:101A70000E9409360E94FF394B015C01A7019601C3
:101A8000C701B6010E9460396B017C012F8D38A11E
:101A900049A15AA1CA01B9010E9460399B01AC0158
:101AA000C701B6010E9409360E94FF396B017C0113
:101AB00060939A0670939B0680939C0690939D0674
:101AC0009B01AC01C501B4010E9408364B015C01C9
:101AD000E894B7F82AE037ED43EA5BE3C501B401C7
:101AE0000E94203918164CF16AC106E716E08F8D66
:101AF00098A10C2C02C0959587950A94E2F780FF77
:101B000012C023E333E34BEC51E4D8011F966D91EF
:101B10007D918D919C9152970E946039F801678761
:101B2000708B818B928BFFEFCF1ADF0A0C5F1F4FF8
:101B300023E0C216D104D9F65DCF20E030E040E0CA
:101B40005FE3C501B4010E94203918160CF43FCFA1
:101B50002FE632E143E85AE3C701B6010E9460393B
:101B60009B01AC01C501B4010E94203918160CF488
:101B70002ECF25C1112309F4ACCC2091A3063091BE
:101B8000A4064091A5065091A6066091FE057091AD
:101B9000FF0580910006909101060E94FE3681119A
:101BA0000EC12091A7063091A8064091A906509138
:101BB000AA06609102067091030680910406909136
:101BC00005060E94FE368111FAC02091AB063091C5
:101BD000AC064091AD065091AE066091060670913C
:101BE000070680910806909109060E94FE36882318
:101BF00009F4EDCEE4C03E8D3111E1C0C1018E7D0E
:101C00009C7F1E8EDFC0809179068130B1F423E382
:101C100033E34BEC51E460919A0670919B068091FE
:101C20009C0690919D060E94603960939A0670937D
:101C30009B0680939C0690939D0680919A069091B6
:101C40009B06A0919C06B0919D068F8F98A3A9A397
:101C5000BAA3A3019201C301B2010E9460396BA72C
:101C60007CA78DA79EA7A5019401C501B4010E9480
:101C700060396FA778AB89AB9AAB20E030E040E8E1
:101C800050E46F8D78A189A19AA10E9460392F8DAF
:101C900038A149A15AA10E9460392BA53CA54DA5A8
:101CA0005EA50E9408362FA538A949A95AA90E9405
:101CB00008366B017C0120E030E0A9010E94FE366D
:101CC00087FD13C3C701B6010E94FF396B017C0178
:101CD0002FA538A949A95AA96BA57CA58DA59EA5B4
:101CE0000E9409360E94FF399B01AC01C701B60171
:101CF00090580E9408376B017C01033021F4F7FAF9
:101D0000F094F7F8F09420E030E0A9016F8D78A10D
:101D100089A19AA10E94FE3687FF11C0F7FAF094BC
:101D2000F7F8F0948F8D98A1A9A1BAA1B05880932B
:101D30009A0690939B06A0939C06B0939D060CA1D7
:101D40001DA1000F111F000F111F0658194FA701E9
:101D50009601C501B4010E9460399B01AC01C30129
:101D6000B2010E94083620E030E040E05FE30E94CC
:101D70006039D8011B966D937D938D939C931E972C
:101D800009A51AA5000F111F000F111F0658194FA2
:101D9000A7019601C301B2010E9460399B01AC0109
:101DA000C501B4010E94093620E030E040E05FE365
:101DB0000E946039F8016387748785879687C1011F
:101DC0008E7D907E892B09F07FC280919206909142
:101DD0009306A0919406B09195068093FA0590938E
:101DE000FB05A093FC05B093FD05809178068093D8
:101DF000E8058091810690918206A0918306B091BA
:101E000084068093F5059093F605A093F705B093AB
:101E1000F805C0909E06D0909F06E090A006F09036
:101E2000A106A70196016091F1057091F2058091DC
:101E3000F3059091F4050E94FE36882301F180910C
:101E4000F005882361F09091B106923041F08FAB9C
:101E50000E941432B701A6018FA90E941827809111
:101E60009E0690919F06A091A006B091A106809336
:101E7000F1059093F205A093F305B093F4058091DA
:101E8000A2068093F905809180069091F00598173D
:101E9000F1F04091F1055091F2056091F3057091D8
:101EA000F4059091B106923071F04BAB5CAB6DAB29
:101EB0007EAB8FAB0E9414324BA95CA96DA97EA9A1
:101EC0008FA90E941827809180068093F0051091B9
:101ED0007F068091EF05811781F08091B1068230F5
:101EE00041F00E941432123011F4439A02C00E9451
:101EF000720680917F068093EF058091760681308F
:101F000069F080917B068093EB0580917906809340
:101F1000E9058E8D833009F074C054C08090960618
:101F200090909706A0909806B09099068091B1067F
:101F3000823039F320E030E040EA51E4C501B401D9
:101F40000E9460390E94ED370E9481376B017C014D
:101F50000E94143220E030E04AE754E4C501B401A5
:101F60000E9460394B015C0182E38C9DB0018D9D24
:101F7000700D112480E090E00E94B0379B01AC010D
:101F8000C501B4010E9408360E94ED370E948137D6
:101F9000CB010E94AB05C114D10409F4B2CF0E9459
:101FA000AF1491E0C91AD1088091B0068111A9CF70
:101FB000AFEFB0E7E2E0A150B040E040E1F700C091
:101FC0000000E9CF80917C068093EC05813089F494
:101FD0008091AB069091AC06A091AD06B091AE0693
:101FE0008093220690932306A0932406B09325069F
:101FF00008C0109222061092230610922406109216
:10200000250680917D069091ED05981759F08093F3
:10201000ED058CE0FE013D96AAE0B6E001900D9240
:102020008A95E1F780917A068093EA05E091760639
:102030008E2F90E0FC013297E830F10508F04BC09C
:10204000EB59FF4F0C94E835BE016F5F7F4F8BA1BA
:102050000E9483278091ED05FBA18F133CC08CE08B
:10206000FE013196AAE0B6E01AC02E8D222349F077
:1020700020E040E050E060E87FEB83EA96E00E94D9
:102080009F2A20E040E050E060E87FEBCE0101961F
:102090000E949F2A8CE0FE013196AEEFB5E00190E0
:1020A0000D928A95E1F717C06EEF75E086E003C0E8
:1020B0006EEF75E087E00E9483270DC08CE0E3EAB5
:1020C000F6E0A6E1B6E0EBCF8CE0E6E1F6E0DF017A
:1020D0001D928A95E9F7E0917706E093E705E830ED
:1020E00009F486C0BE8DB23009F082C08E2F90E018
:1020F0008830910508F073C0FC01E359FF4F0C9440
:10210000E83520E040E050E060E87FEB0AC0409115
:10211000F5055091F6056091F7057091F80520914D
:10212000E80583EA96E00E949F2A59C02091F505B0
:102130003091F6054091F7055091F80560919A06A7
:1021400070919B0680919C0690919D0688248394B3
:1021500011C02091F5053091F6054091F705509199
:10216000F80560919A0670919B0680919C0690916B
:102170009D06812CA8A4CFA0EEA00091E8050E94A6
:10218000DB322DC06091F5057091F6058091F70561
:102190009091F80500E009C06091F5057091F60591
:1021A0008091F7059091F80501E020E014C060915E
:1021B000F5057091F6058091F7059091F80500E01E
:1021C00009C06091F5057091F6058091F705909131
:1021D000F80501E021E04091E8050E9431328CE0F1
:1021E000E3EAF6E0AEEFB5E001900D928A95E1F7F3
:1021F00080917E068093EE05882309F4B3C00E9487
:1022000014329091EE058091B106913069F48230DC
:10221000E9F19FB7F894809126068860809326069E
:102220009FBF0E94AF1432C091E09093E7051092D7
:10223000EB051092EA051092E8051092ED05109258
:10224000F0051092EF058230A9F0BE01635F7F4F69
:1022500080E00E948C278823C9F18CE0FE013D9626
:10226000AAE0B6E001900D928A95E1F70E9412274C
:102270000E9472068BEF93E00E9434138FE993E083
:102280000E94341388E893E00E9434131092EE0504
:1022900080E068C081E066C082E064C088E162C01E
:1022A00089E160C084E05EC08BE15CC085E25AC019
:1022B00084E158C08EE156C08FE154C086E152C01F
:1022C00080E250C083E24EC084E24CC087E04AC046
:1022D0000E3199F0E0F50A3011F40C94B2070C318C
:1022E00011F40C94680887E13DC082E23BC00E31D6
:1022F00011F00C94AB07A1E0AE8F6115710539F0B8
:102300006A307105A9F6409276060C947508B5E01E
:10231000B09376060C94750883E00CC00C3571F40C
:1023200021E02E8F6115710569F06A30710509F0A1
:10233000BFCF89E0809376060C947508B1E0BE8F1C
:102340000C94750838E0309376060C9475080533C4
:1023500011F40C94BD070C3529F3C5CF033009F0F7
:1023600068CA4ACAE7960FB6F894DEBF0FBECDBF63
:10237000DF91CF911F910F91FF90EF90DF90CF9061
:10238000BF90AF909F908F907F906F905F904F9095
:102390003F902F900895CF93DF93C7E9D5E08991BF
:1023A000882319F00E943929FACFDF91CF9108953F
:1023B000CF93DF9321E5829FC0011124EC01DD5F03
:1023C00040E550E0BE0187E995E00E94CB05892BEE
:1023D00059F41092970540E550E067E975E0CE01A9
:1023E0000E94330680E001C081E0DF91CF91089523
:1023F000CF93C0E08C2F0E94D811811104C087E0D8
:102400000E9455290AC080919705882331F00E94C7
:10241000CB110E94D3060E94A714C13011F0C1E075
:10242000E9CFCF9108958F929F92AF92BF92CF92B2
:10243000DF92EF92FF920F931F93CF93DF93CDB76D
:10244000DEB72A970FB6F894DEBF0FBECDBF6B0183
:102450007C01042F20E030E0A9010E94FE3687FFB6
:1024600007C08DE20E943929F7FAF094F7F8F0944A
:10247000102F123060F020E030E048EC52E4C70149
:10248000B6010E9460396B017C011250F2CF00FF4F
:102490000AC020E030E040E251E4C701B6010E94EA
:1024A00060396B017C0120E030E040E05FE3C70170
:1024B000B6010E9409360E947A37E1E0F0E0EC0FA5
:1024C000FD1FE00FF11D2EE2208310E03AE0832E85
:1024D000912CA12CB12C6115710581059105A9F0F4
:1024E000101301C01F5FEE24E394F12CEC0EFD1ECF
:1024F000E10EF11CA50194010E94C635605DF70153
:102500006083B901CA011F5FE6CF80E3101748F46A
:10251000E1E0F0E0EC0FFD1FE10FF11D80831F5F94
:10252000F5CF10130BC012E0100F0F5FE1E0F0E0E9
:10253000EC0FFD1FE00FF11D80E38083112341F0BC
:10254000FE01E10FF11D80810E9439291150F6CF63
:102550002A960FB6F894DEBF0FBECDBFDF91CF91A4
:102560001F910F91FF90EF90DF90CF90BF90AF90B1
:102570009F908F90089543E00C941312EF92FF9276
:102580000F931F93CF93DF931F92CDB7DEB7362FF4
:10259000EDB6FEB66DB77EB7641B71090FB6F89441
:1025A0007EBF0FBE6DBF0DB71EB70F5F1F4F202F31
:1025B000F8019E2F921B941728F4632F0E94BA35BE
:1025C0009193F7CF442361F0F801E40FF11D3197A7
:1025D0008081805D49830E94392949814150F2CF31
:1025E0000FB6F894FEBE0FBEEDBE0F90DF91CF91F7
:1025F0001F910F91FF90EF90089548E062E00C94D6
:10260000BE129FB7F89480912606826080932606BA
:102610009FBF08952091650620FF08C02BE832E493
:1026200041E25DE30E94603941E001C040E00C946A
:1026300013122091650620FF08C02BE832E441E226
:102640005DE30E94603944E001C043E00C94131242
:102650008A3020F0843620F043E003C041E001C01E
:1026600042E06AE00C94BE12CF93DF93FC018491A8
:10267000EF012196882321F00E943929FE01F7CF2E
:10268000DF91CF910895FF920F931F93CF93DF9324
:102690008BE197E00E943413809158060E94281322
:1026A00082E097E00E94341380915B060E94281319
:1026B00084EE96E00E943413809159060E942813FC
:1026C0008BEC96E00E943413809159060E94FD1213
:1026D00084EC96E00E94341380915A060E942813DD
:1026E0008CEA96E00E94341380915A060E94FD12F3
:1026F00085EA96E00E9434138091650682FB882764
:1027000080F90E94281384E896E00E943413809197
:10271000650686FB882780F90E94281384E696E0E8
:102720000E94341380916506881F8827881F0E94A5
:10273000281384E496E00E94341380915C060E9482
:1027400028138EE296E00E94341380915C060E946A
:10275000FD1286E296E00E94341360915D0670914E
:102760005E0680915F06909160060E94BB1286E033
:1027700096E00E9434136091610670916206809128
:102780006306909164060E94BB128BEE95E00E9456
:1027900034138091650681700E9428138EEC95E0B9
:1027A0000E9434138091650685FB882780F90E947A
:1027B000281383EB95E00E9434138091650683FB18
:1027C000882780F90E94281388E995E00E94341335
:1027D00080916506829581700E9428138CE795E0B0
:1027E0000E943413809166060E94281382E695E0C9
:1027F0000E943413809166060E94FD128AE595E0DE
:102800000E94341360916706709168068091690692
:1028100090916A060E94BB128DE395E00E943413EA
:1028200060916B0670916C0680916D0690916E06BA
:102830000E94BB1280E295E00E94341380916F06E3
:102840000E94281381E095E00E9434136091710684
:102850007091720680917306909174060E94BB126B
:1028600088EE94E00E94341384E6F82EC0E008E27B
:1028700016E0D0E086EE94E00E9434138D2F8F0D89
:102880000E94281384EE94E00E943413C23079F041
:10289000F801C330C1F0C13029F0608171818281BB
:1028A000938118C0648575858685978513C020E05F
:1028B00030E041E655E4F801608D718D828D938D95
:1028C0000E94083707C084A195A1A6A1B7A1BC01A9
:1028D000CD0190580E94BB1281EE94E00E94341307
:1028E000D13029F0D23031F08FED94E005C08DED7C
:1028F00094E002C08BED94E00E943413C23051F09A
:10290000C33059F0C13019F081ED94E008C08FEB6D
:1029100094E005C08EEA94E002C08EE994E00E9443
:1029200034138AE994E00E943413DF5F0C5F1F4F79
:10293000D33009F09FCFFAE0FF0ECF5F8CE8F8129A
:1029400096CFDF91CF911F910F91FF900895811144
:1029500004C083E893E00C9434130C9455292F920F
:102960003F924F925F926F927F928F929F92AF921F
:10297000BF92CF92DF92EF92FF920F931F93CF936C
:10298000DF93CDB7DEB768970FB6F894DEBF0FBE02
:10299000CDBF01E099E2A92E28E0722E30E2632E2D
:1029A00040E1B42E50E4552E62E0462E7CE0372EF6
:1029B0001091AF06112309F45BC00093B10611FF1B
:1029C00007C080E494E00E94341385E394E023C0C0
:1029D00012FF07C080E494E00E9434138AE294E07E
:1029E0001AC013FF07C080E494E00E94341387E10B
:1029F00094E011C014FF07C080E494E00E943413F7
:102A00008CE094E008C015FF10C080E494E00E94C0
:102A1000341380E094E00E9434138DEF93E00E9421
:102A2000341384EF91E00E94AB0510FD08C08FB70E
:102A3000F8949091AF061092AF068FBF19C08BEF3C
:102A400093E00E94341389EE93E00E94341388E8E7
:102A500093E00E9434139FB7F894809126068F7EEE
:102A6000809326069FBF8091260684FFFCCFDFCF90
:102A700010912606112309F4C0C114FF04C081E09F
:102A80008093B006CBC110FFF3C0E4EBF6E0DE01AB
:102A90001D96832D01900D928A95E1F78091B106E4
:102AA0008430E9F040F48130E9F080F0823009F5BB
:102AB00085E794E01CC0803179F018F4883049F043
:102AC00018C0803291F0803421F013C084E994E082
:102AD0000EC08FE894E00BC089E894E008C083E85A
:102AE00094E005C08CE794E002C08FE694E00E9479
:102AF000341380915C06837039F0BE01635F7F4FB1
:102B0000CE0101960E94A61A80915C0680FD05C048
:102B100080915C0681FF6EC01FC088E694E00E9431
:102B2000341369817A818B819C810E94191386E616
:102B300094E00E9434136D817E818F8198850E947C
:102B4000191386E694E00E94341369857A858B8593
:102B50009C850E941913DCCF8FE594E00E9434130A
:102B60008AE0C82E86E0D82ECE0101967C01212C69
:102B70004701F60161917191819191916F012085D9
:102B80003185428553850E9409369B01AC01F701CE
:102B900060817181828193810E940836F701608390
:102BA000718382839383F2E02F120FC0209122065B
:102BB0003091230640912406509125060E94083644
:102BC000F7016083718382839383F4E0EF0EF11C3D
:102BD000F40160817181828193810E941913F2E076
:102BE0002F1621F08DE594E00E943413239423E006
:102BF0002212BECF80915C0682FF0EC087E594E072
:102C00000E9434138091830490918204891708F400
:102C10008E5E891B0E94281380915C0683FF0EC084
:102C200082E594E00E94341390919D0180919E0171
:102C3000891708F48058891B0E94281380915C062C
:102C400084FF0AC08CE494E00E9434130E94B6050D
:102C500043E062E00E94BE1288E494E00E943413D4
:102C60009FB7F894809126068E7F809326069FBF9B
:102C7000812F887609F444C08091B106882349F0F9
:102C8000982F9C77A9F1883021F40E94271B00938C
:102C9000B2068091B106811102C04092B20616FFC1
:102CA00009C0883011F45092B1068091B206886054
:102CB0008093B20613FF05C08091B10685FFB092E4
:102CC000B10615FF15C08BEF93E00E94341387EA1D
:102CD00093E00E94341388E893E00E9434138091BB
:102CE000B20681FD146084608093B2066092B106E2
:102CF0009FB7F894809126068779809326069FBF18
:102D000011FF57C0812F887609F04BC08091B10622
:102D1000882339F0807509F444C08091B20681FFA0
:102D200040C08091B20682FF20C08091F0058823C8
:102D300071F04091F1055091F2056091F3057091A9
:102D4000F4050E94182780EA9FE00E94AB0580915D
:102D5000EF05882351F0823011F4439A02C00E949B
:102D6000720688EE93E00E94AB05809182049091F8
:102D70008304981791F0A89EC001112480569E4F9D
:102D8000892B59F08091B20683FD07C07092B1067D
:102D90000E94491B0E94F22602C01092B1061092B6
:102DA000B2069FB7F894809126068D7F8093260601
:102DB0009FBF12FF22C08091B106807391F0809175
:102DC000B30681110EC08091B20682FF04C00E943A
:102DD00012270E9472068091B20682608093B2062A
:102DE00004C01092B2061092B1069FB7F894809179
:102DF00026068B7F809326069FBF8091B1068C7735
:102E000011F00E94491B9091B1068091B206903258
:102E100019F481FDB092B1068111CACD68960FB642
:102E2000F894DEBF0FBECDBFDF91CF911F910F9100
:102E3000FF90EF90DF90CF90BF90AF909F908F90DA
:102E40007F906F905F904F903F902F900895E1E0BA
:102E5000F1E0A0EBB6E014964D915D916D917C91FF
:102E60001797408351836283738318964D915D91C8
:102E70006D917C911B9744835583668377831C9661
:102E80008D919D910D90BC91A02D80879187A287F7
:102E9000B38708952F923F924F925F926F927F92E5
:102EA0008F929F92AF92BF92CF92DF92EF92FF925A
:102EB0000F931F93CF93DF93CDB7DEB7E7970FB68E
:102EC000F894DEBF0FBECDBF4B8F5C8F6D8F072F89
:102ED0002FAB209183042EA3422F50E05BA34AA383
:102EE00039E2239FF0011124E056FE4F1586168625
:102EF0001786108A15A216A217A210A6108249E9F9
:102F000056E766E97EE741A352A363A374A399A39E
:102F100088A348E256E058A74FA3CE010D9698AB80
:102F20008FA721E031E03EA72DA7AE014F5F5F4F95
:102F30005DA34CA38EA129E2829FC00111249EAB08
:102F40008DAB5F8F4E8F21E031E03AA729A748E291
:102F500056E05AAB49AB612C712C10E02F01CF0128
:102F60000D969CAB8BAB1F0195E2290E311CE8A19D
:102F7000F9A16191719181919191F9A3E8A3E9A9D6
:102F8000FAA981909190A190B190FAABE9ABA5011B
:102F900094010E9460390E942D39EFA5F8A9619330
:102FA000719381939193F8ABEFA7E9A5FAA5C1902E
:102FB000D190E190F190FAA7E9A76C197D098E09EB
:102FC0009F096B017C0197FF07C0CC24DD247601AB
:102FD000C61AD70AE80AF90AEDA9FEA9E60DF71DF7
:102FE000E056FE4FC182D282E382F482EBA9FCA9B3
:102FF0002081318142815381C216D306E406F50651
:1030000010F469017A01EBA9FCA9C082D182E282A5
:10301000F3820E94B237A50194010E9408374B0148
:103020005C01EE8DFF8D6193719381939193FF8F7E
:10303000EE8F20E030E0A9010E94FE3687FF0DC030
:10304000112321F0113021F090E803C090E201C07B
:1030500090E4F2018081892B8083A5019401C50150
:10306000B4010E946039F101208131814281538194
:103070000E940936F10160837183828393831F5F0D
:10308000F4E06F0E711C2CE06216710409F06FCF32
:103090000E94FF394B015C01F101608371838283DF
:1030A0009383CD28CE28CF2809F426C220E030E033
:1030B000A9016B8D7C8D8D8D902F0E94FE3687FD32
:1030C00021C0FFA9FF2361F0A50194016B8D7C8DC8
:1030D0008D8D902F0E9460396B8F7C8F8D8F092F83
:1030E00020E030E040E85FE36B8D7C8D8D8D902F8C
:1030F0000E94FE3687FF0DC01B8E1C8E20E82D8F90
:103100000FE307C039E93B8F46E74C8F56E95D8FE7
:103110000EE7A501940160E070E080E89FE30E9463
:10312000083769A77AA78BA79CA7CE010D969A8F1F
:10313000898FC12CD12C760129E2EAA1FBA12E9F17
:10314000C0012F9F900D11249C012F533E4F39A396
:1031500028A3ECA1FDA180809180A280B38020E013
:1031600030E0A901C501B4010E94FE36882309F4AC
:1031700075C029A53AA54BA55CA5C501B4010E945F
:1031800060392B013C01ECA1FDA160837183828336
:1031900093839B01AC0160E070E080E89FE30E94B4
:1031A00008374B015C01E894B7F8EFA1F8A5248536
:1031B000358546855785C501B4010E9460391B01DC
:1031C0008E8F192F9B01482F592F6B8D7C8D8D8DE4
:1031D000902F0E94FE3687FD05C02B8E3C8EFE8D03
:1031E000FD8F012FE8A1F9A120803180F281FE8FAF
:1031F000E8A1F9A11381EFA1F8A5208D318D428DB1
:10320000538DC501B4010E9460394B015C019B01E3
:10321000AC01B1018E8D912F0E94FE3687FD03C057
:103220001401AE8E1B2DC101AE8DB12FE8A1F9A105
:1032300080839183A283B383EDA5FEA52485358584
:1032400046855785C301B2010E9460399B01AC01DC
:10325000C701B6010E9408366B017C012CA13DA17B
:103260002C5F3F4F3DA32CA34DA55EA54C5F5F4F48
:103270005EA74DA78FA198A5049698A78FA3E98D67
:10328000FA8D2E173F0709F064CF80918204FEA1CA
:10329000F8130FC089E22AA13BA1829FF001839F0E
:1032A000F00D1124E056FE4F118A128A138A148AF7
:1032B00014C02FEE3FEF4FE75FE3C701B6010E9456
:1032C000203918167CF489E24AA15BA1849FF001A1
:1032D000859FF00D1124E056FE4F118E128E138E35
:1032E000148E6AC02FEE3FEF4FE75FEBC701B601C8
:1032F0000E942039181644F08FEEC82EDD24DA948F
:103300008FE7E82E8FEBF82EA701960160E070E0C2
:1033100080E89FE30E94083620E030E040E05FE371
:103320000E9460390E94FF396B017C0189E22AA169
:103330003BA1829FF001839FF00D1124E056FE4FC8
:1033400020915D0630915E0640915F0650916006C7
:1033500061A172A183A194A10E946039A701960185
:103360000E9460394B015C01A701960160E070E0AA
:1033700080E89FE30E9408369B01AC01C501B401BF
:103380000E9408376B017C0120E030E0A9010E9417
:10339000FE3687FF03C0C12CD12C760189E24AA1F9
:1033A0005BA1849FF001859FF00D1124E056FE4F34
:1033B000C18ED28EE38EF48E2B8D3C8D4D8D502F91
:1033C0006B8D7C8D8D8D902F0E9460397B018C01DF
:1033D00089E22AA13BA1829FF001839FF00D112475
:1033E000E056FE4FC701D801858F968FA78FB0A3F7
:1033F000A18CB28CC38CD48C6090190170901A018E
:1034000080901B0190901C019301A401B701C80199
:103410000E94FE3687FD05C0762D672D982D892DDB
:1034200004C07E2D6F2D902F812F272F362F492FEF
:10343000582FB501C6010E94FE3687FD0DC09301CD
:10344000A401B701C8010E94FE3687FD03C05301E5
:10345000640102C05701680189E24AA15BA1849F0F
:10346000F001859FF00D1124E056FE4FC501D601F5
:10347000858B968BA78BB08F8CE0FE013196ADE0EB
:10348000B1E001900D928A95E1F7C701D8018093D0
:10349000190190931A01A0931B01B0931C018CE0B9
:1034A000FE013D96A1E0B1E001900D928A95E1F711
:1034B00080910001809383048F5F823109F480E062
:1034C00080930001E7960FB6F894DEBF0FBECDBF24
:1034D000DF91CF911F910F91FF90EF90DF90CF90F0
:1034E000BF90AF909F908F907F906F905F904F9024
:1034F0003F902F900C946004E7960FB6F894DEBFCF
:103500000FBECDBFDF91CF911F910F91FF90EF9034
:10351000DF90CF90BF90AF909F908F907F906F90F3
:103520005F904F903F902F9008958CE1E1E0F1E0A3
:10353000DF011D928A95E9F71092820410928304AC
:1035400081E08093000110929F010895AF92BF9295
:10355000CF92DF92EF92FF920F931F93CF93DF935F
:1035600000D000D0CDB7DEB75B0128E2E22E26E026
:10357000F22E8C016B018CE0C80ED11CF50161911B
:103580007191819191915F01F70121913191419167
:1035900051917F0129833A834B835C830E94B23728
:1035A00029813A814B815C810E940837F80161933F
:1035B0007193819391938F01AC14BD04F9F60F9030
:1035C0000F900F900F90DF91CF911F910F91FF906F
:1035D000EF90DF90CF90BF90AF9008951F920F9221
:1035E0000FB60F9211242F933F934F935F936F93D6
:1035F0007F938F939F93AF93BF93EF93FF9386B186
:103600008095877099F080FF03C00E9474060EC0F9
:10361000982F947021F080912606826005C081FF6A
:1036200005C080912606886080932606FF91EF9161
:10363000BF91AF919F918F917F916F915F914F91CA
:103640003F912F910F900FBE0F901F901895CF9321
:10365000DF93C0916A05D0916B052097B9F081E0A6
:1036600080936D0560918305709184058091850537
:10367000909186059B01AC010E946039698B7A8B21
:103680008B8B9C8B10926B0510926A05DF91CF910A
:1036900008952F923F924F925F926F927F928F92F6
:1036A0009F92AF92BF92CF92DF92EF92FF920F93D1
:1036B0001F93CF93DF93CDB7DEB7CE54D1090FB6AA
:1036C000F894DEBF0FBECDBF8091B10680772596FE
:1036D0008FAF2597882389F020E030E0A901609121
:1036E00083057091840580918505909186050E94DF
:1036F000FE36882311F40C941B24209183052B8B18
:10370000309184053C8B409185054D8B5091860509
:103710005E8B809193058B83909194059D83A091FE
:103720009505AE83B0919605BC8300917F051091FD
:10373000800550918105409182058091720590919C
:103740007305A0917405B09175058FA398A7A9A7DB
:10375000BAA790916E059FAFA0916F052196AFAF6C
:103760002197B09170052296BFAF2297E091710525
:103770002396EFAF239780917A0590917B05A091D6
:103780007C05B0917D058FAB98AFA9AFBAAF909192
:10379000120524969FAF2497A091ED04ADA7B09198
:1037A00083042796BFAF2797E0918204E8A3F091A6
:1037B0009F012696FFAF269720916A0530916B05F1
:1037C0003A8B298B80911305909114059AA389A3B4
:1037D0008091760590917705A0917805B091790553
:1037E0008BAF9CAFADAFBEAF90918B059F8BA0917F
:1037F0008C05A88FB0918D05B98FE0918E05EA8F69
:1038000030908F0520909005F0919105F9832091DB
:1038100092052A83309187053B8F809188058C8F94
:10382000909189059D8FA0918A05AE8F8091EC04BF
:103830009DA5891709F466C7E989FA89EF2B09F074
:1038400089C22796FFAD279728A1F21781F0A22EF3
:10385000B12C39E23A9DC0013B9D900D1124DC0151
:10386000A056BE4FBA8BA98BAB2B09F051C0C80133
:10387000A52FB42F80937F0590938005A093810599
:10388000B09382058F89988DA98DBA8D80938B0511
:1038900090938C05A0938D05B0938E058B899C89A0
:1038A000AD89BE898093830590938405A093850597
:1038B000B09386058B8D9C8DAD8DBE8D80938705D5
:1038C00090938805A0938905B0938A058B819D818B
:1038D000AE81BC818093930590939405A093950548
:1038E000B0939605832D922DA981BA8180938F057F
:1038F00090939005A0939105B09392052496BFAD47
:103900002497B093120510926B0510926A054CC76C
:1039100080916D05882319F010926D05BFC08091CC
:103920006C058F5F853019F080936C0502C0109292
:103930006C0580916C0551E1589FC0011124DC0198
:10394000AB5EBA4FBAA3A9A3B9E2BA9D9001BB9DE1
:10395000300D1124F901E056FE4F7F018081A9A1AD
:10396000BAA18C9381819281A381B48123E0880FD5
:10397000991FAA1FBB1F2A95D1F7E9A1FAA181833C
:103980009283A383B483F70185819681A781B08553
:1039900033E0880F991FAA1FBB1F3A95D1F7E9A101
:1039A000FAA185839683A783B087F70181859285E5
:1039B000A385B48543E0880F991FAA1FBB1F4A95B2
:1039C000D1F7E9A1FAA181879287A387B487D701AC
:1039D0001D966D917D918D919C9150978B019C01CD
:1039E00053E0000F111F221F331F5A95D1F705878F
:1039F00016872787308B0E94B0376FAF21967FAF35
:103A0000219722968FAF229723969FAF2397D701B6
:103A100095962D913D914D915C9198970E94083714
:103A20006FA378A789A79AA79B01AC0160E070E01B
:103A300080EA9FE30E9408376BAF7CAF8DAF9EAFEB
:103A40002596BFAD2597BB23C1F02F89388D498DB1
:103A50005A8D6F89788D898D9A8D0E946039F70112
:103A6000618B728B838B948BFF89FB8B288D2C8BC6
:103A7000398D3D8B4A8D4E8B0DC0D70151966D917E
:103A80007D918D919C9154970E94FF396B8B7C8B1B
:103A90008D8B9E8B1FAA18AE19AE1AAEB9E2BA9DD5
:103AA0009001BB9D300D1124F901E056FE4F4F01EE
:103AB000C1A0D2A0E3A0F4A0A701960160E070E04D
:103AC00080E09FE30E94083769877A878B879C870D
:103AD0002596FFAD2597FF23E9F122E020937E058F
:103AE000D40195964D905D906D907C9098975196ED
:103AF0008D909D90AD90BC905497A50194010E942B
:103B000060399B01AC01C301B2010E9408368B01F0
:103B100089879D8720E030E0A9010E94FE3687FF5B
:103B20001EC1A7019601C701B6010E940936A30173
:103B300092010E9460399B01AC01C501B4010E9451
:103B400008360E94FF396F8B788F898F9A8F3F825A
:103B5000288618C110927E05F401F5A1FF83D401D7
:103B60009696BC91B887F40107A110A5E8A1EF5F74
:103B7000E23109F4E0E02796FFAD2797EF1789F0CF
:103B800029E22E9FF0011124E056FE4F61897289CF
:103B9000838994890E94FF396F8B788F898F9A8FE0
:103BA00004C01F8A188E198E1A8E2F89388D498D60
:103BB0005A8D6F89788D898D9A8D0E9460392B017D
:103BC0003C0149E24A9D90014B9D300D1124C901F1
:103BD00080569E4F5C01DC0151962D913D914D9197
:103BE0005C9154972D873E874F87588BA301920194
:103BF0006D857E858F8598890E9408369B01AC0172
:103C000069857A858B859C850E9460399B01AC0112
:103C10006F817885C8010E94093620E030E040E0DD
:103C20005FE30E946039362E272E89839A8320E035
:103C300030E0A9010E94203918160CF097C02F819E
:103C40003885A801632D722D89819A810E94FE36E4
:103C500087FF72C0F501858C968CA78CB0A0A3015C
:103C60009201C501B4010E9408369B01AC0169852F
:103C70007A858B859C850E9460396B837D838E83DA
:103C80009C83232D322D49815A810E94FE3687FF65
:103C900034C0C501B4010E94FF396B8F7C8F8D8FBA
:103CA0009E8FA50194016D857E858F8598890E94E0
:103CB000FE36811106C0F1E0F0937E0509831A8378
:103CC00061C02D853E854F855889C501B4010E948C
:103CD00008369B01AC0169857A858B859C850E949D
:103CE00060399B01AC016F817885C8010E9408365C
:103CF0006F83788789839A8345C0A7019601C7019E
:103D0000B6010E940936232D322D49815A810E9425
:103D10006039A30192010E9409360E94FF396B8F1E
:103D20007C8F8D8F9E8F3F8228863B822D822981BA
:103D30002E833A813C8326C042E040937E0509836E
:103D40001A835B895B8F8C898C8F9D899D8FAE894F
:103D5000AE8F18C03F82288659874D8717C03F8293
:103D600028861F8A188E198E1A8E10C0BF89BB8FA5
:103D7000E88DEC8FF98DFD8F2A8D2E8F1F8218868E
:103D800019821A8200E010E019861D8624965FAD24
:103D90002497452F50E05CA74BA786E0849FF00155
:103DA000859FF00D1124E251FB4F80916C058283B9
:103DB000A989BA899596BC91BAABE989FA89F6A125
:103DC000FBABA989BA899796BC912896BFAF289773
:103DD000E989FA89F0A52996FFAF29972BAD3CAD6B
:103DE0004DAD5EAD6AA97BA98B2F9F2F0E9408362F
:103DF0006EA77FA788AB99AB20E030E0A9010E94B5
:103E0000FE3687FF04C01EA61FA618AA19AA209175
:103E10007E052F8F2AA83BA92F963FAF2F97289674
:103E20004FAD28972E964FAF2E9729963FAC2997E6
:103E30008EE3C82E83ECD82E8EE2E82E89E3F82E8E
:103E4000412C512C3201CBA2DCA2EDA2FEA29F8D0F
:103E5000992321F0913009F496C0D6C0A989BA8976
:103E600091962D913D914D915C919497C701B6012A
:103E70000E9460394B015C0120E030E040E05FE3EC
:103E80000E9460399B01AC016B897C898D899E8978
:103E90000E9409369B01AC01C701B6010E9460393E
:103EA0009B01AC01622D2F967FAD2F972E968FAD83
:103EB0002E97932D0E940836262E2F967FAF2F9790
:103EC0002E968FAF2E97392E2F81388549815A81B2
:103ED0000E94FE3687FF4AC02F81388549815A816A
:103EE0006AA97BA928968FAD289729969FAD299717
:103EF0000E9408369B01AC010E9409366B017C01CF
:103F00002B8D3C8D4D8D5E8D6B897C898D899E8935
:103F10000E9409369B01AC01C701B6010E94083717
:103F20006B017C012B813D814E815C816F817885A5
:103F300089819A810E94FE36811103C0B2E0BF8F51
:103F400002C0E1E0EF8FFB8DFB8B2C8D2C8B3D8D28
:103F50003D8B4E8D4E8B2F8058852F965FAF2F97C0
:103F600089812E968FAF2E973A80F0C0A5019401DB
:103F70006B897C898D899E890E9409366B8B7C8B2D
:103F80008D8B9E8BE3C0A70196016B8D7C8D8D8DF3
:103F90009E8D0E9460399B01AC01622D2F967FADF2
:103FA0002F972E968FAD2E97932D0E9408364B019A
:103FB0005C012B813D814E815C810E94FE3687FF32
:103FC000BDC02B813D814E815C81622D2F967FADDE
:103FD0002F972E968FAD2E97932D0E9408362B8DFE
:103FE0003C8D4D8D5E8D0E9408376B017C012B80CE
:103FF0009D812F969FAF2F97AE812E96AFAF2E97B4
:104000003C80B2E0BF8FA2C0E989FA8921A132A128
:1040100043A154A1C701B6010E9460394B015C0164
:104020009B01AC016B897C898D899E890E94203916
:1040300018160CF054C020E030E040E05FE3C5010A
:10404000B4010E9460399B01AC016B897C898D8928
:104050009E890E9408369B01AC01C701B6010E94EF
:1040600060399B01AC01622D2F967FAD2F972E9664
:104070008FAD2E97932D0E9408362A966FAF2A9700
:104080002B967FAF2B972C968FAF2C972D969FAFAB
:104090002D97980149855D850E9420391816FCF4FA
:1040A000A50194016B897C898D899E890E940836BF
:1040B0006B8B7C8B8D8B9E8B2A962FAC2A972B96A5
:1040C000FFAD2B972F96FFAF2F972C962FAD2C97E8
:1040D0002E962FAF2E972D963FAC2D9737C0980177
:1040E00049855D85622D2F967FAD2F972E968FADDA
:1040F0002E97932D0E9408369B01AC010E94093631
:104100006B017C012F89388D498D5A8D6B897C8993
:104110008D899E890E9409369B01AC01C701B601B9
:104120000E9408376B017C01202E2F961FAF2F971E
:1041300039852E963FAF2E973D8408C0282C2F96A8
:104140009FAE2F972E96AFAE2E973B2CA7019601D0
:10415000C301B2010E9409362B013C012BA13CA1F5
:104160004DA15EA10E94FE3687FF07C0A301920108
:104170006BA17CA18DA19EA163C02EA53FA548A9DE
:1041800059A9622D2F967FAD2F972E968FAD2E9722
:10419000932D0E94203918160CF442C04F8D409385
:1041A0007E05222D2F963FAD2F972E964FAD2E9741
:1041B000532D6FA178A589A59AA50E9460396F8FAC
:1041C0007BA38EA79AAB0E94E7366B017C016FAD93
:1041D00021967FAD219722968FAD229723969FAD92
:1041E00023970E94E7364B015C01A70196010E94CC
:1041F00008360E9481376BAB7CAB8DAB9EABA6E0E3
:104200008BA59CA5A89FF001A99FF00D1124E25158
:10421000FB4F2BA93CA931832083232B49F1B5C047
:104220002EE333EC4EE259E36BA17CA18DA19EA15C
:104230000E9409366BA37CA38DA39EA3A3019201C8
:104240000E9408366B017C01980149855D85622DCD
:104250002F967FAD2F972E968FAD2E97932D0E9480
:10426000203918160CF4F3CD5F8D50937E0599CF4D
:1042700025968FAD2597882309F487C0C801A985A5
:10428000BD8580937F0590938005A0938105B093B1
:1042900082058F89988DA98DBA8D80938B05909317
:1042A0008C05A0938D05B0938E058B8D9C8DAD8D67
:1042B000BE8D8093870590938805A0938905B09360
:1042C0008A058B819D81AE81BC81809393059093FB
:1042D0009405A0939505B09396058F819885A98143
:1042E000BA8180938F0590939005A0939105B09328
:1042F000920524969FAD249790931205A989BA89B7
:10430000B0936B05A0936A052BAD3CAD4DAD5EAD92
:10431000209376053093770540937805509379057F
:1043200038A13093820449A15AA1509314054093B7
:1043300013058FA198A5A9A5BAA58093720590939E
:104340007305A0937405B09375059DA59093ED0436
:1043500010928305109284051092850510928605AF
:1043600010927A0510927B0510927C0510927D05C3
:10437000C0926E05D0926F05E0927005F0927105C3
:104380002FA138A549A55AA56FC12FA938AD49ADB0
:104390005AADC301B2010E9409362B013C012F8D99
:1043A0003BA14EA55AA9C501B4010E9408369B0144
:1043B000AC01C301B2010E9408374B015C012F8D93
:1043C0003BA14EA55AA9C701B6010E940836A50116
:1043D00094010E9460396FAB78AF89AF9AAF20EC3F
:1043E00031EE44E65EE4C501B4010E9460390E94EA
:1043F000E7360E948137603DB7E07B078105910574
:1044000060F446E02BA53CA5429FF001439FF00DD0
:104410001124E251FB4F158253C0603A5FE07507EB
:104420008105910560F426E0ABA5BCA52A9FF001AB
:104430002B9FF00D1124E251FB4F31E011C060348D
:104440004FE174078105910568F426E0ABA5BCA592
:104450002A9FF0012B9FF00D1124E251FB4F32E017
:1044600035830CC0A6E04BA55CA5A49FF001A59FD9
:10447000F00D1124E251FB4FB3E0B58346E02BA5CC
:104480003CA5429FF001439FF00D1124E251FB4FE8
:104490002581022E04C096958795779567950A9495
:1044A000D2F7ABA9BCA902C0AA0FBB1F2A95E2F79D
:1044B000B183A08361157105B1E08B07910568F4A4
:1044C00046E02BA53CA5429FF001439FF00D11242F
:1044D000E251FB4F7483638304C08FEF9FEF94839B
:1044E0008383BDA4B39496E0B91201C0B12C9801A6
:1044F00049855D85622D2F967FAD2F972E968FADC6
:104500002E97932D0E9420391816ECF4822D2F96A9
:104510009FAD2F972E96AFAD2E97B32DE989FA89CF
:1045200085A396A3A7A3B0A7FF8DFFAF2BA12196CC
:104530002FAF21973EA522963FAF22974AA92396F7
:104540004FAF2397D5C020E030E0A901622D2F9610
:104550007FAD2F972E968FAD2E97932D0E942039E9
:1045600018160CF0AEC0C801A985BD8580937F05E3
:1045700090938005A0938105B09382058F89988DD3
:10458000A98DBA8D80938B0590938C05A0938D0592
:10459000B0938E058B8D9C8DAD8DBE8D80938705E0
:1045A00090938805A0938905B0938A058B819D819E
:1045B000AE81BC818093930590939405A09395055B
:1045C000B09396058F819885A981BA8180938F05D4
:1045D00090939005A0939105B09392055DA550939B
:1045E000120589899A8990936B0580936A052BAD92
:1045F0003CAD4DAD5EAD209376053093770540938D
:1046000078055093790538A13093820449A15AA1C5
:1046100050931405409313058FA198A5A9A5BAA599
:104620008093720590937305A0937405B0937505FC
:10463000B092ED04109283051092840510928505C6
:104640001092860510927A0510927B0510927C05D7
:1046500010927D05C0926E05D0926F05E0927005B4
:10466000F09271059C01AD01C701B6010E940837A7
:10467000A989BA8995966D937D938D939C9398970C
:104680000E94271B8091820480939F01C25BDF4FB1
:104690000FB6F894DEBF0FBECDBFDF91CF911F9153
:1046A0000F91FF90EF90DF90CF90BF90AF909F90D1
:1046B0008F907F906F905F904F903F902F900C94D1
:1046C00060042796BFAD2797E8A1BE1779F08E2F1B
:1046D0008F5F823109F480E0F8A126962FAD2697EE
:1046E000F21303C026968FAF269788A31A8A198AD9
:1046F00059854D853F8028843DA524963FAF24975A
:10470000BDA694C8C801A52FB42F80937F059093B0
:104710008005A0938105B09382058F89988DA98D1E
:10472000BA8D80938B0590938C05A0938D05B093E3
:104730008E058B899C89AD89BE8980938305909372
:104740008405A0938505B09386058B8D9C8DAD8DDA
:10475000BE8D8093870590938805A0938905B093BB
:104760008A058B819D81AE81BC8180939305909356
:104770009405A0939505B0939605832D922DA9815C
:10478000BA8180938F0590939005A0939105B09383
:1047900092052496AFAD2497A0931205E989FA8972
:1047A000F0936B05E0936A052BAD3CAD4DAD5EAD6E
:1047B00020937605309377054093780550937905DB
:1047C00038A13093820449A15AA150931405409313
:1047D00013058FAD21969FAD21972296AFAD2297FD
:1047E0002396BFAD239780936E0590936F05A0939A
:1047F0007005B09371058FA198A5A9A5BAA580935E
:10480000720590937305A0937405B09375052FA955
:1048100038AD49AD5AAD20937A0530937B0540936E
:104820007C0550937D053DA53093ED0426964FAD54
:10483000269740939F01C25BDF4F0FB6F894DEBF0F
:104840000FBECDBFDF91CF911F910F91FF90EF90E1
:10485000DF90CF90BF90AF909F908F907F906F90A0
:104860005F904F903F902F90089580915906682F48
:1048700090E020915A06422F80FD94E0822F8170B3
:1048800020FD80E261FD986041FD806462FD9061E1
:1048900042FD80689093C7048093C60408951F92D8
:1048A0000F920FB60F9211248F939F938BB190911B
:1048B000C7049C71837E892B8BB915BC9F918F9106
:1048C0000F900FBE0F901F90189580916F008D7FF5
:1048D00080936F0080918100887F81608093810048
:1048E0001092C80480915B068F3F21F49091AF062F
:1048F000992349F09091B106943029F090E00E94FC
:10490000AB0581E001C080E09091650692FF02C096
:1049100091E08927882311F0289A0895289808950E
:104920000E9465248BE2ECE6F5E0DF011D928A959A
:10493000E9F783E2E9ECF4E0DF011D928A95E9F7FB
:1049400010926B0510926A051092EC0410921205F9
:1049500081E08093ED041092C8040E9435248BB14D
:10496000837E9091C704892B8BB98BB18F71909105
:10497000C604892B8BB908951F920F920FB60F9220
:1049800011242F933F934F935F936F937F938F9354
:104990009F93AF93BF93EF93FF938091C8048111CE
:1049A00010C28BB19091D804907E8F71892B8BB9F6
:1049B0008BB1837E9091D704892B8BB98091D604DB
:1049C00086BD82E085BD81E08093C80478948091A3
:1049D000EA049091EB04892B09F0ADC08091EC04BE
:1049E00090911205981709F49BC0E091EC042E2FCA
:1049F00030E086E0E89FF0011124E251FB4FF09394
:104A0000EB04E093EA04838194819093890080937E
:104A10008800808191819093E6048093E504E2818F
:104A20008091E7048E1761F1E093E70481E1E89F4C
:104A3000F0011124EB5EFA4FF093E904E093E804EF
:104A400085859685A785B089B695A795979587950D
:104A50008093D1049093D204A093D304B093D40450
:104A60008093CD049093CE04A093CF04B093D00450
:104A70008093C9049093CA04A093CB04B093CC0450
:104A8000E091E804F091E9049091C60480818927BF
:104A90008093D80486E0829FD001839FB00D1124BB
:104AA000A251BB4F15962C9181819281A381B48133
:104AB000022E04C0B695A795979587950A94D2F7CC
:104AC0008093D9049093DA04A093DB04B093DC04C0
:104AD00085819681A781B085022E04C0B695A795E1
:104AE000979587950A94D2F78093DD049093DE041E
:104AF000A093DF04B093E00481859285A385B485FB
:104B000004C0B695A795979587952A95D2F7809377
:104B1000E1049093E204A093E304B093E4040BC097
:104B20000E9465249FB7F894809126068460809344
:104B300026069FBF46C1809127068130B1F486B119
:104B4000807290917506891781F0109227068CE08B
:104B5000E4EBF6E0A0ECB6E001900D928A95E1F767
:104B6000809126068064809326061092D704409197
:104B7000D9045091DA046091DB047091DC048091D7
:104B8000C9049091CA04A091CB04B091CC04840FC5
:104B9000951FA61FB71F8093C9049093CA04A093C2
:104BA000CB04B093CC04E091E804F091E90445858E
:104BB000568567857089481759076A077B0768F526
:104BC00024E02093D7044585568567857089841B2A
:104BD000950BA60BB70B8093C9049093CA04A093BE
:104BE000CB04B093CC0420818091B4069091B5069B
:104BF000A091B606B091B70625FF04C00197A109A0
:104C0000B10903C00196A11DB11D8093B406909314
:104C1000B506A093B606B093B7064091DD04509157
:104C2000DE046091DF047091E0048091CD049091E6
:104C3000CE04A091CF04B091D004840F951FA61F7D
:104C4000B71F8093CD049093CE04A093CF04B0936C
:104C5000D0044585568567857089481759076A07C6
:104C60007B0778F52091D70428602093D7044585E9
:104C7000568567857089841B950BA60BB70B8093AF
:104C8000CD049093CE04A093CF04B093D0042081A0
:104C90008091B8069091B906A091BA06B091BB0672
:104CA00026FF04C00197A109B10903C00196A11D07
:104CB000B11D8093B8069093B906A093BA06B0933D
:104CC000BB064091E1045091E2046091E3047091CD
:104CD000E4048091D1049091D204A091D304B091C6
:104CE000D404840F951FA61FB71F8093D1049093FF
:104CF000D204A093D304B093D40445855685678528
:104D00007089481759076A077B0778F52091D704FF
:104D100020612093D7044585568567857089841B5B
:104D2000950BA60BB70B8093D1049093D204A0935C
:104D3000D304B093D40420818091BC069091BD0629
:104D4000A091BE06B091BF0627FF04C00197A1093C
:104D5000B10903C00196A11DB11D8093BC069093BB
:104D6000BD06A093BE06B093BF068091B106843005
:104D700039F49091CD068091D70489238093D7048C
:104D80008091E5049091E60401979093E604809366
:104D9000E504892B69F41092EB041092EA048091E7
:104DA000EC048F5F8093EC04863011F41092EC04D5
:104DB0009091C7048091D70489278093D7041092DB
:104DC000C804FF91EF91BF91AF919F918F917F9117
:104DD0006F915F914F913F912F910F900FBE0F9068
:104DE0001F9018958091650682FF02C0289A01C025
:104DF00028988091B1068C70A1F08091C6048093B0
:104E0000D8048091C7048093D70480915806880FF6
:104E1000845081958093D60480916F008260809346
:104E20006F000895E0EBF0E080818F778083089534
:104E3000CF92DF92EF92FF926A017B01811104C051
:104E400089E08093B3004DC0813011F42D9801C0EA
:104E50002D9A83E88093B0008091B10087608093A1
:104E6000B10020E030E0A901C701B6010E94FE3682
:104E7000181634F0FF90EF90DF90CF900C9412272B
:104E800020E030E0A901C701B6010E94FE3687FD8F
:104E900011C020E030E044E353E4C701B6010E94B2
:104EA0002039181654F4C12CD12C84E3E82E83E465
:104EB000F82E03C0C12CD12C76012BEA3AEA4AE243
:104EC0005EE3C701B6010E94603920E030E040E1B6
:104ED00051E40E9409360E94ED370E9481376093A9
:104EE000B300FF90EF90DF90CF90089569E080E0ED
:104EF00090E00E9411064DE450E068E276E081E027
:104F000090E00C9433062DE0829FC00111244CE008
:104F100050E09E5F0C9433061F93CF93DF93182FBE
:104F2000EB018DE0189FB00111247E5F4CE050E052
:104F3000CE010E94CB05892B59F48CE0FE01119221
:104F40008A95E9F7BE01812F0E94832780E001C086
:104F500081E0DF91CF911F910895EF92FF920F931F
:104F60001F93CF93DF93CDB7DEB72C970FB6F8948E
:104F7000DEBF0FBECDBF182F80FFC1C08AE0809377
:104F8000580689E180935B061092590610925A06E2
:104F900083E080935C068AE097EDA3E2BCE3809314
:104FA0005D0690935E06A0935F06B09360068FE661
:104FB00092E1A3E0BBE38093610690936206A09325
:104FC0006306B09364061092660680E090E0A8EC59
:104FD000B1E48093670690936806A0936906B09346
:104FE0006A0680E090E0AAEFB3E480936B069093AA
:104FF0006C06A0936D06B0936E062AEF30E03093F6
:10500000700620936F0640E050E060E87FE3409335
:105010007106509372066093730670937406109233
:10502000650640E050E06AE773E440932806509339
:10503000290660932A0670932B0640932C06509302
:105040002D0660932E0670932F06409330065093E2
:105050003106609332067093330680933406909342
:105060003506A0933606B0933706809338069093A2
:105070003906A0933A06B0933B0680933C06909382
:105080003D06A0933E06B0933F0680E090EAACE078
:10509000B7E48093400690934106A0934206B093F4
:1050A00043068093440690934506A0934606B0932A
:1050B00047068093480690934906A0934A06B0930A
:1050C0004B0680E090E0A8E4B3EC80934C0690930C
:1050D0004D06A0934E06B0934F06809350069093D2
:1050E0005106A0935206B0935306809354069093B2
:1050F0005506A0935606B09357060E94762711FFD7
:1051000010C0CE0101967C018CE0F70111928A95C6
:10511000E9F700E0B701802F0E9483270F5F083076
:10512000C9F712FF0AC060E080E093E00E94110618
:1051300060E081E593E00E94110613FF05C060E086
:105140008EEA93E00E9411062C960FB6F894DEBF0B
:105150000FBECDBFDF91CF911F910F91FF90EF90C8
:1051600008951F920F920FB60F9211242F933F9321
:105170004F935F936F937F938F939F93AF93BF935F
:10518000EF93FF938091C6008F33A9F050F48831DC
:1051900009F1813211F59FB7F89480912606886055
:1051A00015C0803471F08E37C1F49FB7F8948091A8
:1051B000260682600BC09FB7F89480912606816016
:1051C00005C09FB7F89480912606806280932606DA
:1051D0009FBF14C00E94740611C0E0919E0191E02F
:1051E0009E0F903809F490E020919D01921731F0C4
:1051F000F0E0E35EFE4F808390939E01FF91EF917C
:10520000BF91AF919F918F917F916F915F914F91DE
:105210003F912F910F900FBE0F901F9018951F92E6
:105220000F920FB60F9211248F939F93EF93FF93DA
:105230008091C504E82FF0E0EB57FB4F90819093ED
:10524000C6008F5F803409F480E08093C50490919C
:105250008404891305C08091C1008F7D8093C100B3
:10526000FF91EF919F918F910F900FBE0F901F9024
:105270001895E091840491E09E0F903431F490E011
:1052800004C02091260624FD0FC02091C50492176A
:10529000C1F3F0E0EB57FB4F80839093840480913F
:1052A000C10080628093C1000895CF93C82F8CE322
:1052B00098E00E9434134C2F50E0FA013197E63108
:1052C000F10580F5EB58FF4F0C94E83584E298E047
:1052D00002C082E198E00E9434132BC080E098E085
:1052E000FACF86EF97E0F7CF85EE97E0F4CF86ED23
:1052F00097E0F1CF85EB97E0EECF8CEA97E0EBCF2C
:1053000081EA97E0E8CF8EE897E0E5CF80E897E084
:10531000E2CF8AE697E0DFCF86E597E0DCCF82E454
:1053200097E0D9CF80E397E00E9434138C2F0E943E
:1053300028138DE297E0CF910C9434130F931F93B1
:10534000CF93DF9387E297E00E943413C0EBD6E05F
:10535000688979898A899B890E94B23708E216E0B8
:10536000F80120813181428153810E9408370E94D7
:10537000191385E297E00E9434136C897D898E8928
:105380009F890E94B237F801248135814681578177
:105390000E9408370E94191385E297E00E94341397
:1053A000688D798D8A8D9B8D0E94B237F80120859A
:1053B0003185428553850E9408370E94191383E284
:1053C00097E00E9434138C8D0E9428138FE197E0A0
:1053D000DF91CF911F910F910C9434138F929F9274
:1053E000AF92BF92CF92DF92EF92FF920F931F93F3
:1053F000CF93DF937C016B01DC01EC91F0E0E95687
:10540000FA4F9081EF019D3221F42296918101E0C3
:1054100007C09B3211F0219602C02296918100E0D4
:10542000912CF0E010E020E030E0A9015E01E0ED19
:10543000E90FEA30D0F4FF5FF93098F49110115081
:10544000A5E0B0E00E94EE35DC01CB01880F991F8A
:10545000AA1FBB1F9C01AD012E0F311D411D511D07
:105460000AC0911008C01F5F06C0EE3F41F49110C2
:1054700006C0992493942196D5019C91D7CFFF2300
:1054800009F44FC0CA01B9010E94B0374B015C0159
:1054900020E030E0A9010E94FE36882349F11F3F39
:1054A00064F42AE037ED43E25CE3C501B4010E94F5
:1054B00060394B015C011E5FF2CF1F3F59F42DECA8
:1054C0003CEC4CEC5DE3C501B4010E9460394B013A
:1054D0005C010EC0112361F020E030E040E251E4B5
:1054E000C501B4010E9460394B015C011150F2CF3B
:1054F000002351F0B7FAB094B7F8B094F601808267
:105500009182A282B38206C0D6018D929D92AD9205
:10551000BC921397C759D540C150F701C08381E0B1
:1055200001C080E0DF91CF911F910F91FF90EF902C
:10553000DF90CF90BF90AF909F908F9008954F9243
:105540005F926F927F928F929F92AF92BF92CF9213
:10555000DF92EF92FF920F931F93CF93DF937C0123
:105560004A015B01D22E8091650685FF4FC08701FD
:10557000C0E0D0E0CC24C394F801419051906190F8
:1055800071908F0120E030E0A901C301B2010E94B7
:105590002039181664F0FE01E85DF94F24A135A109
:1055A00046A157A1C301B2010E94FE3687FDC092F9
:1055B000B3068091B306882321F18091B10688302B
:1055C00069F00E9474068FB7F8943091AF06356089
:1055D0003093AF068FBF0E94AF1418C08FB7F894F6
:1055E000309126063860309326068FBF0E94AF1494
:1055F0008091B00681110AC08091B1068111F6CF69
:10560000E0CF2496CC30D10509F0B6CF8091B10619
:10561000823029F10E94AF148091B00681111FC021
:105620009091820480910001981303C00E9401139D
:10563000F1CF2D2DB501A401C701DF91CF911F91AD
:105640000F91FF90EF90DF90CF90BF90AF909F9021
:105650008F907F906F905F904F900C944A17DF91DE
:10566000CF911F910F91FF90EF90DF90CF90BF905F
:10567000AF909F908F907F906F905F904F90089524
:10568000CF93DF93CDB7DEB76B970FB6F894DEBF3D
:105690000FBECDBF8091C00082608093C000109289
:1056A000C50080E18093C4008091C1008061809337
:1056B000C1008091C10088608093C1008091C100C9
:1056C00080688093C10080E090E00E945804893097
:1056D00009F09CC64DE450E061E070E088E296E09D
:1056E0000E94CB05892B09F491C68AB18C618AB9D5
:1056F000209A8AB1806E8AB9809181008F7E8093D2
:105700008100809181008860809381008091800079
:105710008C7F80938000809180008F7080938000C8
:1057200080916E00887F80936E0014BC15BC8091C0
:105730006E00816080936E0087B1887F87B988B1E1
:10574000876088B980916C00876080936C0080913D
:1057500068008260809368008EE1E0EBF6E0DF0194
:105760001D928A95E9F781E08093B0067894909134
:10577000650694FD8093B10680919E0180939D0102
:105780008FE3E7EEF5E0DF011D928A95E9F76AE025
:1057900076E080E00E948C27811103C087E00E94A0
:1057A0005529239A259A89E08093B3003B9A0E9459
:1057B00072060E9441043D98459A0E94951A0E94E3
:1057C00090240E94271764EB76E08EEF95E00E940C
:1057D000A61A1092B006109226061092AF061092EA
:1057E000B2061092B30682E691E00E9434138091D3
:1057F000B106813069F48BEF93E00E94341385ED9C
:1058000093E00E94341388E893E00E9434132EC082
:105810001092B1060E94F81129C08091970581115C
:1058200034C083E893E00E94341300E090919D011E
:1058300080919E018917E1F0E92FF0E0E35EFE4FD1
:1058400080819F5F903809F490E090939D018F3F95
:1058500079F08A30B1F4E12FF0E0E956FA4F108286
:105860000E94AF141091B0061123B9F210E0DDCF01
:105870000E9401130E94AF148091B0068823B1F2F8
:105880007BCF8D3009F096C5E6CF843209F087C50D
:1058900081E0898B80919805833481F034F48823EA
:1058A00051F0843209F019C109C0873439F08835C4
:1058B00009F013C103C08FE392E0D5C09091990520
:1058C000911164C5833409F4D1C01CF4843239F0D9
:1058D00062C5873469F0883509F4EBC05CC5109166
:1058E000B106187111F018E056C50E94431353C554
:1058F0008DE392E00E9434138091E705823091F0AD
:1059000038F4882361F08130A9F487E392E00CC079
:10591000833069F0883071F48DE292E005C08AE34B
:1059200092E002C084E392E00E9434130CC081E351
:1059300092E0FACF88E292E00E9434138091E7056A
:1059400082500E94281385E292E00E9434138091D5
:10595000ED058A5C0E9428138091EB05813049F0A7
:1059600028F0823051F486E192E005C080E292E0B6
:1059700002C08BE192E00E9434138091E90581110D
:1059800003C081E192E002C08CE092E00E943413F7
:105990008091EA05811103C087E092E002C082E0B5
:1059A00092E00E9434138091E805813019F48DEF64
:1059B00091E002C088EF91E00E9434138091EE05DF
:1059C000813049F028F0823051F48CEE91E005C02E
:1059D00084EF91E002C080EF91E00E943413809147
:1059E000F005813031F040F0823051F484EE91E0E6
:1059F00005C088EE91E002C080EE91E00E94341371
:105A00008091EF05882329F0823039F488ED91E008
:105A100002C08CED91E00E94341385ED91E00E946C
:105A200034138091F9050E94281382ED91E00E94C1
:105A300034136091F5057091F6058091F70590910A
:105A4000F8050E940A138FEC91E00E9434136091D4
:105A5000F1057091F2058091F3059091F4050E9493
:105A60000A138BEC91E00E94341395C48091B10627
:105A7000823069F40E9474068BEF93E00E94341325
:105A800082EB93E00E94341388E893E0ECCF81111D
:105A90002ACF82E08093B1068BEF93E00E9434130B
:105AA0008BEB93E00E94341388E893E00E94341358
:105AB0003CC08091B106813009F06DC48BEF93E05A
:105AC0000E94341383EC93E00E94341388E893E03F
:105AD0000E9434131092B1065EC49091B1069230C8
